{
  "_format": "hh-sol-artifact-1",
  "contractName": "ToDo",
  "sourceName": "contracts/ToDo.sol",
  "abi": [
    {
      "anonymous": false,
      "inputs": [
        {
          "indexed": false,
          "internalType": "uint256",
          "name": "id",
          "type": "uint256"
        },
        {
          "indexed": false,
          "internalType": "uint256",
          "name": "date",
          "type": "uint256"
        },
        {
          "indexed": false,
          "internalType": "string",
          "name": "content",
          "type": "string"
        },
        {
          "indexed": false,
          "internalType": "string",
          "name": "author",
          "type": "string"
        },
        {
          "indexed": false,
          "internalType": "bool",
          "name": "done",
          "type": "bool"
        }
      ],
      "name": "TaskCreated",
      "type": "event"
    },
    {
      "anonymous": false,
      "inputs": [
        {
          "indexed": false,
          "internalType": "uint256",
          "name": "id",
          "type": "uint256"
        },
        {
          "indexed": false,
          "internalType": "bool",
          "name": "done",
          "type": "bool"
        },
        {
          "indexed": false,
          "internalType": "uint256",
          "name": "date",
          "type": "uint256"
        }
      ],
      "name": "TaskStatusToggled",
      "type": "event"
    },
    {
      "inputs": [
        {
          "internalType": "string",
          "name": "_content",
          "type": "string"
        },
        {
          "internalType": "string",
          "name": "_author",
          "type": "string"
        }
      ],
      "name": "createTask",
      "outputs": [],
      "stateMutability": "nonpayable",
      "type": "function"
    },
    {
      "inputs": [],
      "name": "getTasks",
      "outputs": [
        {
          "components": [
            {
              "internalType": "uint256",
              "name": "id",
              "type": "uint256"
            },
            {
              "internalType": "uint256",
              "name": "date",
              "type": "uint256"
            },
            {
              "internalType": "string",
              "name": "content",
              "type": "string"
            },
            {
              "internalType": "string",
              "name": "author",
              "type": "string"
            },
            {
              "internalType": "bool",
              "name": "done",
              "type": "bool"
            },
            {
              "internalType": "uint256",
              "name": "dateComplete",
              "type": "uint256"
            }
          ],
          "internalType": "struct ToDo.Task[]",
          "name": "",
          "type": "tuple[]"
        }
      ],
      "stateMutability": "view",
      "type": "function"
    },
    {
      "inputs": [],
      "name": "nextTaskId",
      "outputs": [
        {
          "internalType": "uint256",
          "name": "",
          "type": "uint256"
        }
      ],
      "stateMutability": "view",
      "type": "function"
    },
    {
      "inputs": [
        {
          "internalType": "uint256",
          "name": "",
          "type": "uint256"
        }
      ],
      "name": "tasks",
      "outputs": [
        {
          "internalType": "uint256",
          "name": "id",
          "type": "uint256"
        },
        {
          "internalType": "uint256",
          "name": "date",
          "type": "uint256"
        },
        {
          "internalType": "string",
          "name": "content",
          "type": "string"
        },
        {
          "internalType": "string",
          "name": "author",
          "type": "string"
        },
        {
          "internalType": "bool",
          "name": "done",
          "type": "bool"
        },
        {
          "internalType": "uint256",
          "name": "dateComplete",
          "type": "uint256"
        }
      ],
      "stateMutability": "view",
      "type": "function"
    },
    {
      "inputs": [
        {
          "internalType": "uint256",
          "name": "id",
          "type": "uint256"
        }
      ],
      "name": "toggleDone",
      "outputs": [],
      "stateMutability": "nonpayable",
      "type": "function"
    }
  ],
  "bytecode": "0x60806040526001600260006101000a81548160ff02191690831515021790555034801561002b57600080fd5b50610f3a8061003b6000396000f3fe608060405234801561001057600080fd5b50600436106100575760003560e01c806304a87e381461005c578063292a45851461007a5780638d97767214610096578063d81ef739146100cb578063fdc3d8d7146100e7575b600080fd5b610064610105565b60405161007191906109ca565b60405180910390f35b610094600480360381019061008f9190610b35565b610321565b005b6100b060048036038101906100ab9190610bd9565b61045c565b6040516100c296959493929190610c6e565b60405180910390f35b6100e560048036038101906100e09190610bd9565b6105b5565b005b6100ef6106ca565b6040516100fc9190610cdd565b60405180910390f35b6060600060015467ffffffffffffffff81111561012557610124610a0a565b5b60405190808252806020026020018201604052801561015e57816020015b61014b6106d0565b8152602001906001900390816101435790505b50905060005b600154811015610319576000808281526020019081526020016000206040518060c001604052908160008201548152602001600182015481526020016002820180546101af90610d27565b80601f01602080910402602001604051908101604052809291908181526020018280546101db90610d27565b80156102285780601f106101fd57610100808354040283529160200191610228565b820191906000526020600020905b81548152906001019060200180831161020b57829003601f168201915b5050505050815260200160038201805461024190610d27565b80601f016020809104026020016040519081016040528092919081815260200182805461026d90610d27565b80156102ba5780601f1061028f576101008083540402835291602001916102ba565b820191906000526020600020905b81548152906001019060200180831161029d57829003601f168201915b505050505081526020016004820160009054906101000a900460ff161515151581526020016005820154815250508282815181106102fb576102fa610d59565b5b6020026020010181905250808061031190610db7565b915050610164565b508091505090565b6040518060c0016040528060015481526020014281526020018381526020018281526020016000151581526020016000815250600080600154815260200190815260200160002060008201518160000155602082015181600101556040820151816002019080519060200190610398929190610708565b5060608201518160030190805190602001906103b5929190610708565b5060808201518160040160006101000a81548160ff02191690831515021790555060a082015181600501559050507fb322bdd3250d405f7845d27fa1f0753f8f7e18e40886bc254b89005c3e9c0324600154428484600060405161041d959493929190610e00565b60405180910390a16001600081548092919061043890610db7565b91905055506000600260006101000a81548160ff0219169083151502179055505050565b600060205280600052604060002060009150905080600001549080600101549080600201805461048b90610d27565b80601f01602080910402602001604051908101604052809291908181526020018280546104b790610d27565b80156105045780601f106104d957610100808354040283529160200191610504565b820191906000526020600020905b8154815290600101906020018083116104e757829003601f168201915b50505050509080600301805461051990610d27565b80601f016020809104026020016040519081016040528092919081815260200182805461054590610d27565b80156105925780601f1061056757610100808354040283529160200191610592565b820191906000526020600020905b81548152906001019060200180831161057557829003601f168201915b5050505050908060040160009054906101000a900460ff16908060050154905086565b60001515600260009054906101000a900460ff1615151461060b576040517f08c379a000000000000000000000000000000000000000000000000000000000815260040161060290610ead565b60405180910390fd5b600080600083815260200190815260200160002090508060040160009054906101000a900460ff16158160040160006101000a81548160ff0219169083151502179055508060040160009054906101000a900460ff1661066c57600061066e565b425b81600501819055507fcb1ceae718a6ae11d5daf00e292e318717e0acf2d326ed670df0e5ff67ba5000828260040160009054906101000a900460ff1683600501546040516106be93929190610ecd565b60405180910390a15050565b60015481565b6040518060c0016040528060008152602001600081526020016060815260200160608152602001600015158152602001600081525090565b82805461071490610d27565b90600052602060002090601f016020900481019282610736576000855561077d565b82601f1061074f57805160ff191683800117855561077d565b8280016001018555821561077d579182015b8281111561077c578251825591602001919060010190610761565b5b50905061078a919061078e565b5090565b5b808211156107a757600081600090555060010161078f565b5090565b600081519050919050565b600082825260208201905092915050565b6000819050602082019050919050565b6000819050919050565b6107ea816107d7565b82525050565b600081519050919050565b600082825260208201905092915050565b60005b8381101561082a57808201518184015260208101905061080f565b83811115610839576000848401525b50505050565b6000601f19601f8301169050919050565b600061085b826107f0565b61086581856107fb565b935061087581856020860161080c565b61087e8161083f565b840191505092915050565b60008115159050919050565b61089e81610889565b82525050565b600060c0830160008301516108bc60008601826107e1565b5060208301516108cf60208601826107e1565b50604083015184820360408601526108e78282610850565b915050606083015184820360608601526109018282610850565b91505060808301516109166080860182610895565b5060a083015161092960a08601826107e1565b508091505092915050565b600061094083836108a4565b905092915050565b6000602082019050919050565b6000610960826107ab565b61096a81856107b6565b93508360208202850161097c856107c7565b8060005b858110156109b857848403895281516109998582610934565b94506109a483610948565b925060208a01995050600181019050610980565b50829750879550505050505092915050565b600060208201905081810360008301526109e48184610955565b905092915050565b6000604051905090565b600080fd5b600080fd5b600080fd5b600080fd5b7f4e487b7100000000000000000000000000000000000000000000000000000000600052604160045260246000fd5b610a428261083f565b810181811067ffffffffffffffff82111715610a6157610a60610a0a565b5b80604052505050565b6000610a746109ec565b9050610a808282610a39565b919050565b600067ffffffffffffffff821115610aa057610a9f610a0a565b5b610aa98261083f565b9050602081019050919050565b82818337600083830152505050565b6000610ad8610ad384610a85565b610a6a565b905082815260208101848484011115610af457610af3610a05565b5b610aff848285610ab6565b509392505050565b600082601f830112610b1c57610b1b610a00565b5b8135610b2c848260208601610ac5565b91505092915050565b60008060408385031215610b4c57610b4b6109f6565b5b600083013567ffffffffffffffff811115610b6a57610b696109fb565b5b610b7685828601610b07565b925050602083013567ffffffffffffffff811115610b9757610b966109fb565b5b610ba385828601610b07565b9150509250929050565b610bb6816107d7565b8114610bc157600080fd5b50565b600081359050610bd381610bad565b92915050565b600060208284031215610bef57610bee6109f6565b5b6000610bfd84828501610bc4565b91505092915050565b610c0f816107d7565b82525050565b600082825260208201905092915050565b6000610c31826107f0565b610c3b8185610c15565b9350610c4b81856020860161080c565b610c548161083f565b840191505092915050565b610c6881610889565b82525050565b600060c082019050610c836000830189610c06565b610c906020830188610c06565b8181036040830152610ca28187610c26565b90508181036060830152610cb68186610c26565b9050610cc56080830185610c5f565b610cd260a0830184610c06565b979650505050505050565b6000602082019050610cf26000830184610c06565b92915050565b7f4e487b7100000000000000000000000000000000000000000000000000000000600052602260045260246000fd5b60006002820490506001821680610d3f57607f821691505b60208210811415610d5357610d52610cf8565b5b50919050565b7f4e487b7100000000000000000000000000000000000000000000000000000000600052603260045260246000fd5b7f4e487b7100000000000000000000000000000000000000000000000000000000600052601160045260246000fd5b6000610dc2826107d7565b91507fffffffffffffffffffffffffffffffffffffffffffffffffffffffffffffffff821415610df557610df4610d88565b5b600182019050919050565b600060a082019050610e156000830188610c06565b610e226020830187610c06565b8181036040830152610e348186610c26565b90508181036060830152610e488185610c26565b9050610e576080830184610c5f565b9695505050505050565b7f7461736b20646f6573206e6f7420657869737400000000000000000000000000600082015250565b6000610e97601383610c15565b9150610ea282610e61565b602082019050919050565b60006020820190508181036000830152610ec681610e8a565b9050919050565b6000606082019050610ee26000830186610c06565b610eef6020830185610c5f565b610efc6040830184610c06565b94935050505056fea26469706673582212208f5c32994c238e1d132f791bc794244aca6796b04921b7d2ac8fb5f1f3da4a7264736f6c63430008090033",
  "linkReferences": {},
  "deployedLinkReferences": {}
}